{
  "contractName": "FullDapp",
  "abi": [
    {
      "inputs": [],
      "stateMutability": "nonpayable",
      "type": "constructor"
    },
    {
      "anonymous": false,
      "inputs": [
        {
          "indexed": false,
          "internalType": "address",
          "name": "_owner",
          "type": "address"
        },
        {
          "indexed": false,
          "internalType": "uint256",
          "name": "_amount",
          "type": "uint256"
        }
      ],
      "name": "Deposit",
      "type": "event"
    },
    {
      "anonymous": false,
      "inputs": [
        {
          "indexed": false,
          "internalType": "address",
          "name": "_owner",
          "type": "address"
        },
        {
          "indexed": false,
          "internalType": "uint256",
          "name": "_reward",
          "type": "uint256"
        }
      ],
      "name": "Withdraw",
      "type": "event"
    },
    {
      "inputs": [],
      "name": "calculateTotalReword",
      "outputs": [
        {
          "internalType": "uint256",
          "name": "",
          "type": "uint256"
        }
      ],
      "stateMutability": "view",
      "type": "function"
    },
    {
      "inputs": [],
      "name": "getDetails",
      "outputs": [
        {
          "components": [
            {
              "internalType": "uint256",
              "name": "total",
              "type": "uint256"
            },
            {
              "internalType": "uint256",
              "name": "avgTime",
              "type": "uint256"
            },
            {
              "components": [
                {
                  "internalType": "uint256",
                  "name": "amount",
                  "type": "uint256"
                },
                {
                  "internalType": "enum FullDapp.TrxMethod",
                  "name": "method",
                  "type": "uint8"
                },
                {
                  "internalType": "uint256",
                  "name": "time",
                  "type": "uint256"
                }
              ],
              "internalType": "struct FullDapp.Details[]",
              "name": "fullDetails",
              "type": "tuple[]"
            }
          ],
          "internalType": "struct FullDapp.Record",
          "name": "",
          "type": "tuple"
        }
      ],
      "stateMutability": "view",
      "type": "function"
    },
    {
      "inputs": [],
      "name": "owner",
      "outputs": [
        {
          "internalType": "address",
          "name": "",
          "type": "address"
        }
      ],
      "stateMutability": "view",
      "type": "function"
    },
    {
      "inputs": [
        {
          "internalType": "address",
          "name": "_token",
          "type": "address"
        }
      ],
      "name": "setTokenAddress",
      "outputs": [],
      "stateMutability": "nonpayable",
      "type": "function"
    },
    {
      "inputs": [],
      "name": "stackTrx",
      "outputs": [
        {
          "internalType": "bool",
          "name": "",
          "type": "bool"
        }
      ],
      "stateMutability": "payable",
      "type": "function"
    },
    {
      "inputs": [
        {
          "internalType": "uint256",
          "name": "_amount",
          "type": "uint256"
        }
      ],
      "name": "unstackTrx",
      "outputs": [],
      "stateMutability": "nonpayable",
      "type": "function"
    }
  ],
  "bytecode": "0x608060405234801561001057600080fd5b50d3801561001d57600080fd5b50d2801561002a57600080fd5b50336000806101000a81548173ffffffffffffffffffffffffffffffffffffffff021916908373ffffffffffffffffffffffffffffffffffffffff1602179055506113a78061007a6000396000f3fe6080604052600436106100555760003560e01c806326a4e8d21461005a57806356d15e911461009d5780638da5cb5b146100e2578063cb23a2f714610127578063d702456c1461016a578063fbbf93a014610188575b600080fd5b34801561006657600080fd5b50d3801561007357600080fd5b50d2801561008057600080fd5b5061009b60048036038101906100969190610bfe565b6101cd565b005b3480156100a957600080fd5b50d380156100b657600080fd5b50d280156100c357600080fd5b506100cc61029f565b6040516100d99190610c44565b60405180910390f35b3480156100ee57600080fd5b50d380156100fb57600080fd5b50d2801561010857600080fd5b506101116103e5565b60405161011e9190610c6e565b60405180910390f35b34801561013357600080fd5b50d3801561014057600080fd5b50d2801561014d57600080fd5b5061016860048036038101906101639190610cb5565b610409565b005b6101726107d1565b60405161017f9190610cfd565b60405180910390f35b34801561019457600080fd5b50d380156101a157600080fd5b50d280156101ae57600080fd5b506101b76109ee565b6040516101c49190610edf565b60405180910390f35b60008054906101000a900473ffffffffffffffffffffffffffffffffffffffff1673ffffffffffffffffffffffffffffffffffffffff163373ffffffffffffffffffffffffffffffffffffffff161461025b576040517f08c379a000000000000000000000000000000000000000000000000000000000815260040161025290610f5e565b60405180910390fd5b80600160006101000a81548173ffffffffffffffffffffffffffffffffffffffff021916908373ffffffffffffffffffffffffffffffffffffffff16021790555050565b600080600260003373ffffffffffffffffffffffffffffffffffffffff1673ffffffffffffffffffffffffffffffffffffffff168152602001908152602001600020604051806060016040529081600082015481526020016001820154815260200160028201805480602002602001604051908101604052809291908181526020016000905b828210156103a65783829060005260206000209060030201604051806060016040529081600082015481526020016001820160009054906101000a900460ff16600181111561037757610376610d53565b5b600181111561038957610388610d53565b5b815260200160028201548152505081526020019060010190610325565b5050505081525050905060008160000151116103c65760009150506103e2565b60006103da82602001518360000151610b07565b905080925050505b90565b60008054906101000a900473ffffffffffffffffffffffffffffffffffffffff1681565b6000811161044c576040517f08c379a000000000000000000000000000000000000000000000000000000000815260040161044390610fca565b60405180910390fd5b80600260003373ffffffffffffffffffffffffffffffffffffffff1673ffffffffffffffffffffffffffffffffffffffff1681526020019081526020016000206000015410156104d1576040517f08c379a00000000000000000000000000000000000000000000000000000000081526004016104c890611036565b60405180910390fd5b6000600260003373ffffffffffffffffffffffffffffffffffffffff1673ffffffffffffffffffffffffffffffffffffffff16815260200190815260200160002090506000604051806060016040528084815260200160018081111561053a57610539610d53565b5b8152602001428152509050828260000160008282546105599190611085565b92505081905550816002018190806001815401808255809150506001900390600052602060002090600302016000909190919091506000820151816000015560208201518160010160006101000a81548160ff021916908360018111156105c3576105c2610d53565b5b02179055506040820151816002015550503373ffffffffffffffffffffffffffffffffffffffff166108fc620186a0856105fd91906110b9565b9081150290604051600060405180830381858888f19350505050158015610628573d6000803e3d6000fd5b506000610639836001015485610b07565b90506000600160009054906101000a900473ffffffffffffffffffffffffffffffffffffffff1673ffffffffffffffffffffffffffffffffffffffff166370a08231306040518263ffffffff1660e01b81526004016106989190610c6e565b602060405180830381865afa1580156106b5573d6000803e3d6000fd5b505050506040513d601f19601f820116820180604052508101906106d99190611128565b905081811061079157600160009054906101000a900473ffffffffffffffffffffffffffffffffffffffff1673ffffffffffffffffffffffffffffffffffffffff1663a9059cbb336103e88561072f91906110b9565b6040518363ffffffff1660e01b815260040161074c929190611155565b6020604051808303816000875af115801561076b573d6000803e3d6000fd5b505050506040513d601f19601f8201168201806040525081019061078f91906111aa565b505b7f884edad9ce6fa2440d8a54cc123490eb96d2768479d49ff9c7366125a942436433836040516107c2929190611155565b60405180910390a15050505050565b60006302faf0803411610819576040517f08c379a000000000000000000000000000000000000000000000000000000000815260040161081090611223565b60405180910390fd5b60006040518060600160405280348152602001600060018111156108405761083f610d53565b5b81526020014281525090506000600260003373ffffffffffffffffffffffffffffffffffffffff1673ffffffffffffffffffffffffffffffffffffffff1681526020019081526020016000209050348160000160008282546108a29190611243565b92505081905550806002018290806001815401808255809150506001900390600052602060002090600302016000909190919091506000820151816000015560208201518160010160006101000a81548160ff0219169083600181111561090c5761090b610d53565b5b0217905550604082015181600201555050600081600201805490509050600080600090505b828110156109815783600201818154811061094f5761094e611299565b5b9060005260206000209060030201600201548261096c9190611243565b91508080610979906112c8565b915050610931565b50600082826109909190611340565b90508084600101819055507fe1fffcc4923d04b559f4d29a8bfc6cda04eb5b0d3c460751c2402c5c5cc9109c33620f4240346109cc9190611340565b6040516109da929190611155565b60405180910390a160019550505050505090565b6109f6610b4e565b600260003373ffffffffffffffffffffffffffffffffffffffff1673ffffffffffffffffffffffffffffffffffffffff168152602001908152602001600020604051806060016040529081600082015481526020016001820154815260200160028201805480602002602001604051908101604052809291908181526020016000905b82821015610afa5783829060005260206000209060030201604051806060016040529081600082015481526020016001820160009054906101000a900460ff166001811115610acb57610aca610d53565b5b6001811115610add57610adc610d53565b5b815260200160028201548152505081526020019060010190610a79565b5050505081525050905090565b60008061012c8442610b199190611085565b610b239190611340565b90506000620f424084610b369190611340565b82610b4191906110b9565b9050809250505092915050565b60405180606001604052806000815260200160008152602001606081525090565b600080fd5b600074ffffffffffffffffffffffffffffffffffffffffff82169050919050565b610b9e81610b74565b8114610ba957600080fd5b50565b600073ffffffffffffffffffffffffffffffffffffffff82169050919050565b6000610bd782610bac565b9050919050565b600081359050610bed81610b95565b610bf681610bcc565b905092915050565b600060208284031215610c1457610c13610b6f565b5b6000610c2284828501610bde565b91505092915050565b6000819050919050565b610c3e81610c2b565b82525050565b6000602082019050610c596000830184610c35565b92915050565b610c6881610bcc565b82525050565b6000602082019050610c836000830184610c5f565b92915050565b610c9281610c2b565b8114610c9d57600080fd5b50565b600081359050610caf81610c89565b92915050565b600060208284031215610ccb57610cca610b6f565b5b6000610cd984828501610ca0565b91505092915050565b60008115159050919050565b610cf781610ce2565b82525050565b6000602082019050610d126000830184610cee565b92915050565b610d2181610c2b565b82525050565b600081519050919050565b600082825260208201905092915050565b6000819050602082019050919050565b7f4e487b7100000000000000000000000000000000000000000000000000000000600052602160045260246000fd5b60028110610d9357610d92610d53565b5b50565b6000819050610da482610d82565b919050565b6000610db482610d96565b9050919050565b610dc481610da9565b82525050565b606082016000820151610de06000850182610d18565b506020820151610df36020850182610dbb565b506040820151610e066040850182610d18565b50505050565b6000610e188383610dca565b60608301905092915050565b6000602082019050919050565b6000610e3c82610d27565b610e468185610d32565b9350610e5183610d43565b8060005b83811015610e82578151610e698882610e0c565b9750610e7483610e24565b925050600181019050610e55565b5085935050505092915050565b6000606083016000830151610ea76000860182610d18565b506020830151610eba6020860182610d18565b5060408301518482036040860152610ed28282610e31565b9150508091505092915050565b60006020820190508181036000830152610ef98184610e8f565b905092915050565b600082825260208201905092915050565b7f6f6e6c79206f776e65722063616e2073657420746f6b656e2061646472657373600082015250565b6000610f48602083610f01565b9150610f5382610f12565b602082019050919050565b60006020820190508181036000830152610f7781610f3b565b9050919050565b7f616d6f756e742073686f756c642062652067726561746572207468616e203000600082015250565b6000610fb4601f83610f01565b9150610fbf82610f7e565b602082019050919050565b60006020820190508181036000830152610fe381610fa7565b9050919050565b7f6e6f7420656e6f75676820746f6b656e7320796f752068617665000000000000600082015250565b6000611020601a83610f01565b915061102b82610fea565b602082019050919050565b6000602082019050818103600083015261104f81611013565b9050919050565b7f4e487b7100000000000000000000000000000000000000000000000000000000600052601160045260246000fd5b600061109082610c2b565b915061109b83610c2b565b9250828210156110ae576110ad611056565b5b828203905092915050565b60006110c482610c2b565b91506110cf83610c2b565b9250817fffffffffffffffffffffffffffffffffffffffffffffffffffffffffffffffff048311821515161561110857611107611056565b5b828202905092915050565b60008151905061112281610c89565b92915050565b60006020828403121561113e5761113d610b6f565b5b600061114c84828501611113565b91505092915050565b600060408201905061116a6000830185610c5f565b6111776020830184610c35565b9392505050565b61118781610ce2565b811461119257600080fd5b50565b6000815190506111a48161117e565b92915050565b6000602082840312156111c0576111bf610b6f565b5b60006111ce84828501611195565b91505092915050565b7f547278206d7573742062652067726561746572207468656e2035300000000000600082015250565b600061120d601b83610f01565b9150611218826111d7565b602082019050919050565b6000602082019050818103600083015261123c81611200565b9050919050565b600061124e82610c2b565b915061125983610c2b565b9250827fffffffffffffffffffffffffffffffffffffffffffffffffffffffffffffffff0382111561128e5761128d611056565b5b828201905092915050565b7f4e487b7100000000000000000000000000000000000000000000000000000000600052603260045260246000fd5b60006112d382610c2b565b91507fffffffffffffffffffffffffffffffffffffffffffffffffffffffffffffffff82141561130657611305611056565b5b600182019050919050565b7f4e487b7100000000000000000000000000000000000000000000000000000000600052601260045260246000fd5b600061134b82610c2b565b915061135683610c2b565b92508261136657611365611311565b5b82820490509291505056fea26474726f6e58221220d110929af799a3b410688521bb4484dfd740c8f9c387ebe424e0b0cf8cc6962f64736f6c634300080b0033",
  "source": "// SPDX-License-Identifier: MIT\npragma solidity ^0.8.10;\n\ninterface ITRC20 {\n    function balanceOf(address account) external view returns (uint256);\n    function transfer(address recipient, uint256 amount) external returns (bool);\n}\n\n\ncontract FullDapp{\n\n    enum TrxMethod {\n        deposit,\n        withdraw\n    }\n    struct Details {\n        uint amount;\n        TrxMethod method;\n        uint time;\n    }\n    struct Record{\n        uint total;\n        uint avgTime;\n        Details[] fullDetails;\n    }\n\n    event Deposit(address _owner, uint _amount);\n    event Withdraw(address _owner, uint _reward);\n\n    address public owner;\n    address tokenAddress;\n    constructor() {\n        owner = msg.sender;\n    }\n\n    function setTokenAddress(address _token) public {\n        require(msg.sender == owner, \"only owner can set token address\");\n        tokenAddress = address(_token);\n    }\n\n    mapping(address => Record) _stakers;\n\n\n\n    function stackTrx() external payable returns(bool){\n        // check tokens\n        require(msg.value > 50 * (10 ** 6), \"Trx must be greater then 50\");\n        Details memory tempRecord = Details(msg.value, TrxMethod.deposit, block.timestamp);\n\n        Record storage personDetails = _stakers[msg.sender];\n        personDetails.total += msg.value;  // recalculate total tokens\n\n        // push the temprecord\n        personDetails.fullDetails.push(tempRecord);\n\n        // for avg time\n        uint noOfRecords = personDetails.fullDetails.length;\n        uint  totalTime;\n        for (uint i = 0; i < noOfRecords; i++){\n            totalTime += personDetails.fullDetails[i].time;\n        }\n        uint avgTime = totalTime / noOfRecords;\n\n        personDetails.avgTime =  avgTime;\n\n        emit Deposit(msg.sender, msg.value / (10 **  6));\n        return true;\n    }\n\n\n    function unstackTrx(uint _amount) external{\n        require(_amount > 0, \"amount should be greater than 0\");\n        require(_stakers[msg.sender].total >= _amount, \"not enough tokens you have\");\n\n        Record storage personDetails = _stakers[msg.sender];\n\n        // edit the details\n        Details memory tempRecord = Details(_amount, TrxMethod.withdraw, block.timestamp);\n        personDetails.total -= _amount;  // recalculate total tokens\n         // push the temprecord\n        personDetails.fullDetails.push(tempRecord);\n\n        // send the trx to the client back  // this function is not deployed to chain\n        payable(msg.sender).transfer(_amount * 100000);\n\n        // calculate the the reword tokens\n        uint reward;\n        reward = calculateReword(personDetails.avgTime ,_amount);\n\n\n        // check avail balance and send it if avail.\n        uint tokensAvail = ITRC20(tokenAddress).balanceOf(address(this));\n        if(tokensAvail >= reward){  // tokens avail, so send it\n            ITRC20(tokenAddress).transfer(msg.sender, reward * 1000);   \n        }\n        \n        emit Withdraw(msg.sender, reward);\n    }\n\n    function calculateReword(uint _time, uint _amount) internal view returns(uint){\n        //? mechanism is that you will get one reward token for each trx token stacked for 5 mins\n        //? so the one period == 5 mins  == 300 seconds \n\n        uint periods = (block.timestamp - _time)/300;\n\n        uint reward = periods * (_amount / (10 ** 6));   // trx tokens has 6 decimals to deviding it will give you axact tokens amount.\n\n        return reward;\n\n    }\n\n    function calculateTotalReword() public view returns(uint){\n        Record memory personRecord = _stakers[msg.sender];\n\n        if(personRecord.total <= 0){\n            return 0;\n\n        }else{\n\n        uint reward = calculateReword(personRecord.avgTime, personRecord.total);\n        return reward;\n        }\n    }\n\n    function getDetails() public view returns(Record memory){\n        return _stakers[msg.sender];\n    }\n}\n\n\n\n",
  "sourcePath": "/Users/aamir/Documents/vs codes/blockchain development/TRC20/first/tron/contracts/FullDapp.sol",
  "compiler": {
    "name": "solc",
    "version": "0.8.11+commit.b01f3284.mod.Emscripten.clang"
  },
  "schemaVersion": "2.0.1",
  "updatedAt": "2023-12-06T13:43:16.642Z"
}