{
  "contractName": "FullDapp",
  "abi": [
    {
      "inputs": [],
      "stateMutability": "nonpayable",
      "type": "constructor"
    },
    {
      "anonymous": false,
      "inputs": [
        {
          "indexed": false,
          "internalType": "address",
          "name": "_owner",
          "type": "address"
        },
        {
          "indexed": false,
          "internalType": "uint256",
          "name": "_amount",
          "type": "uint256"
        }
      ],
      "name": "Deposit",
      "type": "event"
    },
    {
      "anonymous": false,
      "inputs": [
        {
          "indexed": false,
          "internalType": "address",
          "name": "_owner",
          "type": "address"
        },
        {
          "indexed": false,
          "internalType": "uint256",
          "name": "_reward",
          "type": "uint256"
        }
      ],
      "name": "Withdraw",
      "type": "event"
    },
    {
      "inputs": [],
      "name": "calculateTotalReword",
      "outputs": [
        {
          "internalType": "uint256",
          "name": "",
          "type": "uint256"
        }
      ],
      "stateMutability": "view",
      "type": "function"
    },
    {
      "inputs": [],
      "name": "getDetails",
      "outputs": [
        {
          "components": [
            {
              "internalType": "uint256",
              "name": "total",
              "type": "uint256"
            },
            {
              "internalType": "uint256",
              "name": "avgTime",
              "type": "uint256"
            },
            {
              "components": [
                {
                  "internalType": "uint256",
                  "name": "amount",
                  "type": "uint256"
                },
                {
                  "internalType": "enum FullDapp.TrxMethod",
                  "name": "method",
                  "type": "uint8"
                },
                {
                  "internalType": "uint256",
                  "name": "time",
                  "type": "uint256"
                }
              ],
              "internalType": "struct FullDapp.Details[]",
              "name": "fullDetails",
              "type": "tuple[]"
            }
          ],
          "internalType": "struct FullDapp.Record",
          "name": "",
          "type": "tuple"
        }
      ],
      "stateMutability": "view",
      "type": "function"
    },
    {
      "inputs": [],
      "name": "owner",
      "outputs": [
        {
          "internalType": "address",
          "name": "",
          "type": "address"
        }
      ],
      "stateMutability": "view",
      "type": "function"
    },
    {
      "inputs": [
        {
          "internalType": "address",
          "name": "_token",
          "type": "address"
        }
      ],
      "name": "setTokenAddress",
      "outputs": [],
      "stateMutability": "nonpayable",
      "type": "function"
    },
    {
      "inputs": [],
      "name": "stackTrx",
      "outputs": [
        {
          "internalType": "bool",
          "name": "",
          "type": "bool"
        }
      ],
      "stateMutability": "payable",
      "type": "function"
    },
    {
      "inputs": [
        {
          "internalType": "uint256",
          "name": "_amount",
          "type": "uint256"
        }
      ],
      "name": "unstackTrx",
      "outputs": [],
      "stateMutability": "nonpayable",
      "type": "function"
    }
  ],
  "bytecode": "0x608060405234801561001057600080fd5b50d3801561001d57600080fd5b50d2801561002a57600080fd5b50336000806101000a81548173ffffffffffffffffffffffffffffffffffffffff021916908373ffffffffffffffffffffffffffffffffffffffff1602179055506113458061007a6000396000f3fe6080604052600436106100555760003560e01c806326a4e8d21461005a57806356d15e911461009d5780638da5cb5b146100e2578063cb23a2f714610127578063d702456c1461016a578063fbbf93a014610188575b600080fd5b34801561006657600080fd5b50d3801561007357600080fd5b50d2801561008057600080fd5b5061009b60048036038101906100969190610b9c565b6101cd565b005b3480156100a957600080fd5b50d380156100b657600080fd5b50d280156100c357600080fd5b506100cc61029f565b6040516100d99190610be2565b60405180910390f35b3480156100ee57600080fd5b50d380156100fb57600080fd5b50d2801561010857600080fd5b506101116103e5565b60405161011e9190610c0c565b60405180910390f35b34801561013357600080fd5b50d3801561014057600080fd5b50d2801561014d57600080fd5b5061016860048036038101906101639190610c53565b610409565b005b61017261076f565b60405161017f9190610c9b565b60405180910390f35b34801561019457600080fd5b50d380156101a157600080fd5b50d280156101ae57600080fd5b506101b761098c565b6040516101c49190610e7d565b60405180910390f35b60008054906101000a900473ffffffffffffffffffffffffffffffffffffffff1673ffffffffffffffffffffffffffffffffffffffff163373ffffffffffffffffffffffffffffffffffffffff161461025b576040517f08c379a000000000000000000000000000000000000000000000000000000000815260040161025290610efc565b60405180910390fd5b80600160006101000a81548173ffffffffffffffffffffffffffffffffffffffff021916908373ffffffffffffffffffffffffffffffffffffffff16021790555050565b600080600260003373ffffffffffffffffffffffffffffffffffffffff1673ffffffffffffffffffffffffffffffffffffffff168152602001908152602001600020604051806060016040529081600082015481526020016001820154815260200160028201805480602002602001604051908101604052809291908181526020016000905b828210156103a65783829060005260206000209060030201604051806060016040529081600082015481526020016001820160009054906101000a900460ff16600181111561037757610376610cf1565b5b600181111561038957610388610cf1565b5b815260200160028201548152505081526020019060010190610325565b5050505081525050905060008160000151116103c65760009150506103e2565b60006103da82602001518360000151610aa5565b905080925050505b90565b60008054906101000a900473ffffffffffffffffffffffffffffffffffffffff1681565b6000811161044c576040517f08c379a000000000000000000000000000000000000000000000000000000000815260040161044390610f68565b60405180910390fd5b80600260003373ffffffffffffffffffffffffffffffffffffffff1673ffffffffffffffffffffffffffffffffffffffff1681526020019081526020016000206000015410156104d1576040517f08c379a00000000000000000000000000000000000000000000000000000000081526004016104c890610fd4565b60405180910390fd5b6000600260003373ffffffffffffffffffffffffffffffffffffffff1673ffffffffffffffffffffffffffffffffffffffff16815260200190815260200160002090506000604051806060016040528084815260200160018081111561053a57610539610cf1565b5b8152602001428152509050828260000160008282546105599190611023565b92505081905550816002018190806001815401808255809150506001900390600052602060002090600302016000909190919091506000820151816000015560208201518160010160006101000a81548160ff021916908360018111156105c3576105c2610cf1565b5b021790555060408201518160020155505060006105e4836001015485610aa5565b90506000600160009054906101000a900473ffffffffffffffffffffffffffffffffffffffff1673ffffffffffffffffffffffffffffffffffffffff166370a08231306040518263ffffffff1660e01b81526004016106439190610c0c565b602060405180830381865afa158015610660573d6000803e3d6000fd5b505050506040513d601f19601f82011682018060405250810190610684919061106c565b905081811061072f57600160009054906101000a900473ffffffffffffffffffffffffffffffffffffffff1673ffffffffffffffffffffffffffffffffffffffff1663a9059cbb33846040518363ffffffff1660e01b81526004016106ea929190611099565b6020604051808303816000875af1158015610709573d6000803e3d6000fd5b505050506040513d601f19601f8201168201806040525081019061072d91906110ee565b505b7f884edad9ce6fa2440d8a54cc123490eb96d2768479d49ff9c7366125a94243643383604051610760929190611099565b60405180910390a15050505050565b60006302faf08034116107b7576040517f08c379a00000000000000000000000000000000000000000000000000000000081526004016107ae90611167565b60405180910390fd5b60006040518060600160405280348152602001600060018111156107de576107dd610cf1565b5b81526020014281525090506000600260003373ffffffffffffffffffffffffffffffffffffffff1673ffffffffffffffffffffffffffffffffffffffff1681526020019081526020016000209050348160000160008282546108409190611187565b92505081905550806002018290806001815401808255809150506001900390600052602060002090600302016000909190919091506000820151816000015560208201518160010160006101000a81548160ff021916908360018111156108aa576108a9610cf1565b5b0217905550604082015181600201555050600081600201805490509050600080600090505b8281101561091f578360020181815481106108ed576108ec6111dd565b5b9060005260206000209060030201600201548261090a9190611187565b915080806109179061120c565b9150506108cf565b506000828261092e9190611284565b90508084600101819055507fe1fffcc4923d04b559f4d29a8bfc6cda04eb5b0d3c460751c2402c5c5cc9109c33620f42403461096a9190611284565b604051610978929190611099565b60405180910390a160019550505050505090565b610994610aec565b600260003373ffffffffffffffffffffffffffffffffffffffff1673ffffffffffffffffffffffffffffffffffffffff168152602001908152602001600020604051806060016040529081600082015481526020016001820154815260200160028201805480602002602001604051908101604052809291908181526020016000905b82821015610a985783829060005260206000209060030201604051806060016040529081600082015481526020016001820160009054906101000a900460ff166001811115610a6957610a68610cf1565b5b6001811115610a7b57610a7a610cf1565b5b815260200160028201548152505081526020019060010190610a17565b5050505081525050905090565b60008061012c8442610ab79190611023565b610ac19190611284565b90506000620f424084610ad49190611284565b82610adf91906112b5565b9050809250505092915050565b60405180606001604052806000815260200160008152602001606081525090565b600080fd5b600074ffffffffffffffffffffffffffffffffffffffffff82169050919050565b610b3c81610b12565b8114610b4757600080fd5b50565b600073ffffffffffffffffffffffffffffffffffffffff82169050919050565b6000610b7582610b4a565b9050919050565b600081359050610b8b81610b33565b610b9481610b6a565b905092915050565b600060208284031215610bb257610bb1610b0d565b5b6000610bc084828501610b7c565b91505092915050565b6000819050919050565b610bdc81610bc9565b82525050565b6000602082019050610bf76000830184610bd3565b92915050565b610c0681610b6a565b82525050565b6000602082019050610c216000830184610bfd565b92915050565b610c3081610bc9565b8114610c3b57600080fd5b50565b600081359050610c4d81610c27565b92915050565b600060208284031215610c6957610c68610b0d565b5b6000610c7784828501610c3e565b91505092915050565b60008115159050919050565b610c9581610c80565b82525050565b6000602082019050610cb06000830184610c8c565b92915050565b610cbf81610bc9565b82525050565b600081519050919050565b600082825260208201905092915050565b6000819050602082019050919050565b7f4e487b7100000000000000000000000000000000000000000000000000000000600052602160045260246000fd5b60028110610d3157610d30610cf1565b5b50565b6000819050610d4282610d20565b919050565b6000610d5282610d34565b9050919050565b610d6281610d47565b82525050565b606082016000820151610d7e6000850182610cb6565b506020820151610d916020850182610d59565b506040820151610da46040850182610cb6565b50505050565b6000610db68383610d68565b60608301905092915050565b6000602082019050919050565b6000610dda82610cc5565b610de48185610cd0565b9350610def83610ce1565b8060005b83811015610e20578151610e078882610daa565b9750610e1283610dc2565b925050600181019050610df3565b5085935050505092915050565b6000606083016000830151610e456000860182610cb6565b506020830151610e586020860182610cb6565b5060408301518482036040860152610e708282610dcf565b9150508091505092915050565b60006020820190508181036000830152610e978184610e2d565b905092915050565b600082825260208201905092915050565b7f6f6e6c79206f776e65722063616e2073657420746f6b656e2061646472657373600082015250565b6000610ee6602083610e9f565b9150610ef182610eb0565b602082019050919050565b60006020820190508181036000830152610f1581610ed9565b9050919050565b7f616d6f756e742073686f756c642062652067726561746572207468616e203000600082015250565b6000610f52601f83610e9f565b9150610f5d82610f1c565b602082019050919050565b60006020820190508181036000830152610f8181610f45565b9050919050565b7f6e6f7420656e6f75676820746f6b656e7320796f752068617665000000000000600082015250565b6000610fbe601a83610e9f565b9150610fc982610f88565b602082019050919050565b60006020820190508181036000830152610fed81610fb1565b9050919050565b7f4e487b7100000000000000000000000000000000000000000000000000000000600052601160045260246000fd5b600061102e82610bc9565b915061103983610bc9565b92508282101561104c5761104b610ff4565b5b828203905092915050565b60008151905061106681610c27565b92915050565b60006020828403121561108257611081610b0d565b5b600061109084828501611057565b91505092915050565b60006040820190506110ae6000830185610bfd565b6110bb6020830184610bd3565b9392505050565b6110cb81610c80565b81146110d657600080fd5b50565b6000815190506110e8816110c2565b92915050565b60006020828403121561110457611103610b0d565b5b6000611112848285016110d9565b91505092915050565b7f547278206d7573742062652067726561746572207468656e2035300000000000600082015250565b6000611151601b83610e9f565b915061115c8261111b565b602082019050919050565b6000602082019050818103600083015261118081611144565b9050919050565b600061119282610bc9565b915061119d83610bc9565b9250827fffffffffffffffffffffffffffffffffffffffffffffffffffffffffffffffff038211156111d2576111d1610ff4565b5b828201905092915050565b7f4e487b7100000000000000000000000000000000000000000000000000000000600052603260045260246000fd5b600061121782610bc9565b91507fffffffffffffffffffffffffffffffffffffffffffffffffffffffffffffffff82141561124a57611249610ff4565b5b600182019050919050565b7f4e487b7100000000000000000000000000000000000000000000000000000000600052601260045260246000fd5b600061128f82610bc9565b915061129a83610bc9565b9250826112aa576112a9611255565b5b828204905092915050565b60006112c082610bc9565b91506112cb83610bc9565b9250817fffffffffffffffffffffffffffffffffffffffffffffffffffffffffffffffff048311821515161561130457611303610ff4565b5b82820290509291505056fea26474726f6e58221220bdac8b6824f9e6cdba03efe56ce30a4a13047a341af03a7559d36b832a53ff9264736f6c634300080b0033",
  "source": "// SPDX-License-Identifier: MIT\npragma solidity ^0.8.10;\n\nimport \"./tamplate/ITRC20.sol\";\n\ncontract FullDapp {\n\n    enum TrxMethod {\n        deposit,\n        withdraw\n    }\n    struct Details {\n        uint amount;\n        TrxMethod method;\n        uint time;\n    }\n    struct Record{\n        uint total;\n        uint avgTime;\n        Details[] fullDetails;\n    }\n\n    event Deposit(address _owner, uint _amount);\n    event Withdraw(address _owner, uint _reward);\n\n    address public owner;\n    address tokenAddress;\n    constructor() {\n        owner = msg.sender;\n    }\n\n    function setTokenAddress(address _token) public {\n        require(msg.sender == owner, \"only owner can set token address\");\n        tokenAddress = address(_token);\n    }\n\n    mapping(address => Record) _stakers;\n\n\n\n    function stackTrx() external payable returns(bool){\n        // check tokens\n        require(msg.value > 50 * (10 ** 6), \"Trx must be greater then 50\");\n        Details memory tempRecord = Details(msg.value, TrxMethod.deposit, block.timestamp);\n\n        Record storage personDetails = _stakers[msg.sender];\n        personDetails.total += msg.value;  // recalculate total tokens\n\n        // push the temprecord\n        personDetails.fullDetails.push(tempRecord);\n\n        // for avg time\n        uint noOfRecords = personDetails.fullDetails.length;\n        uint  totalTime;\n        for (uint i = 0; i < noOfRecords; i++){\n            totalTime += personDetails.fullDetails[i].time;\n        }\n        uint avgTime = totalTime / noOfRecords;\n\n        personDetails.avgTime =  avgTime;\n\n        emit Deposit(msg.sender, msg.value / (10 **  6));\n        return true;\n    }\n\n\n    function unstackTrx(uint _amount) external{\n        require(_amount > 0, \"amount should be greater than 0\");\n        require(_stakers[msg.sender].total >= _amount, \"not enough tokens you have\");\n\n        Record storage personDetails = _stakers[msg.sender];\n\n        // edit the details\n        Details memory tempRecord = Details(_amount, TrxMethod.withdraw, block.timestamp);\n        personDetails.total -= _amount;  // recalculate total tokens\n         // push the temprecord\n        personDetails.fullDetails.push(tempRecord);\n\n        // calculate the the reword tokens\n        uint reward;\n        reward = calculateReword(personDetails.avgTime ,_amount);\n\n\n        // check avail balance and send it if avail.\n        uint tokensAvail = ITRC20(tokenAddress).balanceOf(address(this));\n        if(tokensAvail >= reward){  // tokens avail, so send it\n            ITRC20(tokenAddress).transfer(msg.sender, reward);\n        }\n        \n        emit Withdraw(msg.sender, reward);\n    }\n\n    function calculateReword(uint _time, uint _amount) internal view returns(uint){\n        //? mechanism is that you will get one reward token for each trx token stacked for 5 mins\n        //? so the one period == 5 mins  == 300 seconds \n\n        uint periods = (block.timestamp - _time)/300;\n\n        uint reward = periods * (_amount / (10 ** 6));   // trx tokens has 6 decimals to deviding it will give you axact tokens amount.\n\n        return reward;\n\n    }\n\n    function calculateTotalReword() public view returns(uint){\n        Record memory personRecord = _stakers[msg.sender];\n\n        if(personRecord.total <= 0){\n            return 0;\n\n        }else{\n\n        uint reward = calculateReword(personRecord.avgTime, personRecord.total);\n        return reward;\n        }\n    }\n\n    function getDetails() public view returns(Record memory){\n        return _stakers[msg.sender];\n    }\n}\n\n\n\n",
  "sourcePath": "/Users/aamir/Documents/vs codes/blockchain development/TRC20/first/tron/contracts/FullDapp.sol",
  "compiler": {
    "name": "solc",
    "version": "0.8.11+commit.b01f3284.mod.Emscripten.clang"
  },
  "schemaVersion": "2.0.1",
  "updatedAt": "2023-11-30T09:39:46.978Z"
}